{
  "_format": "hh-sol-artifact-1",
  "contractName": "Channel",
  "sourceName": "contracts/channel.sol",
  "abi": [
    {
      "inputs": [
        {
          "internalType": "address",
          "name": "_token",
          "type": "address"
        }
      ],
      "stateMutability": "nonpayable",
      "type": "constructor"
    },
    {
      "anonymous": false,
      "inputs": [
        {
          "indexed": true,
          "internalType": "address",
          "name": "from",
          "type": "address"
        },
        {
          "indexed": true,
          "internalType": "address",
          "name": "to",
          "type": "address"
        },
        {
          "indexed": false,
          "internalType": "uint256",
          "name": "amount",
          "type": "uint256"
        }
      ],
      "name": "Defund",
      "type": "event"
    },
    {
      "anonymous": false,
      "inputs": [
        {
          "indexed": true,
          "internalType": "address",
          "name": "from",
          "type": "address"
        },
        {
          "indexed": true,
          "internalType": "address",
          "name": "to",
          "type": "address"
        },
        {
          "indexed": false,
          "internalType": "uint256",
          "name": "amount",
          "type": "uint256"
        }
      ],
      "name": "Fund",
      "type": "event"
    },
    {
      "anonymous": false,
      "inputs": [
        {
          "indexed": true,
          "internalType": "address",
          "name": "from",
          "type": "address"
        },
        {
          "indexed": true,
          "internalType": "address",
          "name": "to",
          "type": "address"
        },
        {
          "indexed": false,
          "internalType": "uint64",
          "name": "time",
          "type": "uint64"
        }
      ],
      "name": "Lock",
      "type": "event"
    },
    {
      "anonymous": false,
      "inputs": [
        {
          "indexed": false,
          "internalType": "address",
          "name": "from",
          "type": "address"
        },
        {
          "indexed": false,
          "internalType": "address",
          "name": "to",
          "type": "address"
        },
        {
          "indexed": false,
          "internalType": "uint256",
          "name": "amount",
          "type": "uint256"
        }
      ],
      "name": "Transfer",
      "type": "event"
    },
    {
      "inputs": [
        {
          "internalType": "uint256",
          "name": "amount",
          "type": "uint256"
        }
      ],
      "name": "airdrop",
      "outputs": [
        {
          "internalType": "uint256",
          "name": "",
          "type": "uint256"
        }
      ],
      "stateMutability": "nonpayable",
      "type": "function"
    },
    {
      "inputs": [
        {
          "internalType": "address",
          "name": "account",
          "type": "address"
        }
      ],
      "name": "balanceOf",
      "outputs": [
        {
          "internalType": "uint256",
          "name": "",
          "type": "uint256"
        }
      ],
      "stateMutability": "view",
      "type": "function"
    },
    {
      "inputs": [],
      "name": "decimals",
      "outputs": [
        {
          "internalType": "uint8",
          "name": "",
          "type": "uint8"
        }
      ],
      "stateMutability": "view",
      "type": "function"
    },
    {
      "inputs": [
        {
          "internalType": "uint256",
          "name": "amount",
          "type": "uint256"
        }
      ],
      "name": "deposit",
      "outputs": [
        {
          "internalType": "bool",
          "name": "",
          "type": "bool"
        }
      ],
      "stateMutability": "nonpayable",
      "type": "function"
    },
    {
      "inputs": [
        {
          "internalType": "address",
          "name": "from",
          "type": "address"
        },
        {
          "internalType": "address",
          "name": "to",
          "type": "address"
        }
      ],
      "name": "getChannelByAddresses",
      "outputs": [
        {
          "components": [
            {
              "internalType": "uint256",
              "name": "value",
              "type": "uint256"
            },
            {
              "internalType": "enum Channel.State",
              "name": "state",
              "type": "uint8"
            },
            {
              "components": [
                {
                  "internalType": "uint256",
                  "name": "_value",
                  "type": "uint256"
                }
              ],
              "internalType": "struct Counters.Counter",
              "name": "round",
              "type": "tuple"
            },
            {
              "internalType": "uint64",
              "name": "lockTime",
              "type": "uint64"
            }
          ],
          "internalType": "struct Channel.ChannelState",
          "name": "",
          "type": "tuple"
        }
      ],
      "stateMutability": "view",
      "type": "function"
    },
    {
      "inputs": [
        {
          "internalType": "address",
          "name": "sender",
          "type": "address"
        }
      ],
      "name": "getChannelReciversBySender",
      "outputs": [
        {
          "internalType": "address[]",
          "name": "",
          "type": "address[]"
        }
      ],
      "stateMutability": "view",
      "type": "function"
    },
    {
      "inputs": [
        {
          "internalType": "address",
          "name": "reciver",
          "type": "address"
        }
      ],
      "name": "getChannelSendersByReciver",
      "outputs": [
        {
          "internalType": "address[]",
          "name": "",
          "type": "address[]"
        }
      ],
      "stateMutability": "view",
      "type": "function"
    },
    {
      "inputs": [
        {
          "internalType": "bytes32",
          "name": "_messageHash",
          "type": "bytes32"
        }
      ],
      "name": "getEthSignedMessageHash",
      "outputs": [
        {
          "internalType": "bytes32",
          "name": "",
          "type": "bytes32"
        }
      ],
      "stateMutability": "pure",
      "type": "function"
    },
    {
      "inputs": [
        {
          "internalType": "address",
          "name": "from",
          "type": "address"
        },
        {
          "internalType": "address",
          "name": "to",
          "type": "address"
        },
        {
          "internalType": "uint256",
          "name": "amount",
          "type": "uint256"
        },
        {
          "internalType": "uint64",
          "name": "round",
          "type": "uint64"
        }
      ],
      "name": "getMessageHash",
      "outputs": [
        {
          "internalType": "bytes32",
          "name": "",
          "type": "bytes32"
        }
      ],
      "stateMutability": "pure",
      "type": "function"
    },
    {
      "inputs": [
        {
          "internalType": "address",
          "name": "to",
          "type": "address"
        },
        {
          "internalType": "uint256",
          "name": "value",
          "type": "uint256"
        }
      ],
      "name": "open",
      "outputs": [],
      "stateMutability": "nonpayable",
      "type": "function"
    },
    {
      "inputs": [
        {
          "internalType": "address",
          "name": "from",
          "type": "address"
        },
        {
          "internalType": "uint256",
          "name": "amount",
          "type": "uint256"
        },
        {
          "internalType": "uint64",
          "name": "round",
          "type": "uint64"
        },
        {
          "internalType": "bytes",
          "name": "sig",
          "type": "bytes"
        }
      ],
      "name": "reciverCollectPayment",
      "outputs": [],
      "stateMutability": "nonpayable",
      "type": "function"
    },
    {
      "inputs": [
        {
          "internalType": "bytes32",
          "name": "_ethSignedMessageHash",
          "type": "bytes32"
        },
        {
          "internalType": "bytes",
          "name": "_signature",
          "type": "bytes"
        }
      ],
      "name": "recoverSigner",
      "outputs": [
        {
          "internalType": "address",
          "name": "",
          "type": "address"
        }
      ],
      "stateMutability": "pure",
      "type": "function"
    },
    {
      "inputs": [
        {
          "internalType": "address",
          "name": "to",
          "type": "address"
        },
        {
          "internalType": "uint256",
          "name": "amount",
          "type": "uint256"
        }
      ],
      "name": "senderFundChannel",
      "outputs": [],
      "stateMutability": "nonpayable",
      "type": "function"
    },
    {
      "inputs": [
        {
          "internalType": "address",
          "name": "to",
          "type": "address"
        }
      ],
      "name": "senderLock",
      "outputs": [],
      "stateMutability": "nonpayable",
      "type": "function"
    },
    {
      "inputs": [
        {
          "internalType": "address",
          "name": "to",
          "type": "address"
        }
      ],
      "name": "senderWithdrawal",
      "outputs": [],
      "stateMutability": "nonpayable",
      "type": "function"
    },
    {
      "inputs": [
        {
          "internalType": "bytes",
          "name": "sig",
          "type": "bytes"
        }
      ],
      "name": "splitSignature",
      "outputs": [
        {
          "internalType": "bytes32",
          "name": "r",
          "type": "bytes32"
        },
        {
          "internalType": "bytes32",
          "name": "s",
          "type": "bytes32"
        },
        {
          "internalType": "uint8",
          "name": "v",
          "type": "uint8"
        }
      ],
      "stateMutability": "pure",
      "type": "function"
    },
    {
      "inputs": [],
      "name": "token",
      "outputs": [
        {
          "internalType": "contract IERC20",
          "name": "",
          "type": "address"
        }
      ],
      "stateMutability": "view",
      "type": "function"
    },
    {
      "inputs": [
        {
          "internalType": "address",
          "name": "to",
          "type": "address"
        },
        {
          "internalType": "uint256",
          "name": "amount",
          "type": "uint256"
        }
      ],
      "name": "transfer",
      "outputs": [
        {
          "internalType": "bool",
          "name": "",
          "type": "bool"
        }
      ],
      "stateMutability": "nonpayable",
      "type": "function"
    },
    {
      "inputs": [
        {
          "internalType": "uint256",
          "name": "amount",
          "type": "uint256"
        }
      ],
      "name": "withdrawal",
      "outputs": [
        {
          "internalType": "bool",
          "name": "",
          "type": "bool"
        }
      ],
      "stateMutability": "nonpayable",
      "type": "function"
    }
  ],
  "bytecode": "0x608060405260018054600160a01b600160e81b0319167c120000000000015180000000000000000000000000000000000000000017905534801561004257600080fd5b5060405161192938038061192983398101604081905261006191610086565b600180546001600160a01b0319166001600160a01b03929092169190911790556100b6565b60006020828403121561009857600080fd5b81516001600160a01b03811681146100af57600080fd5b9392505050565b611864806100c56000396000f3fe608060405234801561001057600080fd5b50600436106101515760003560e01c80637f968ac7116100cd578063a9059cbb11610081578063b6b55f2511610066578063b6b55f25146103b6578063fa540801146103c9578063fc0c546a1461042a57600080fd5b8063a9059cbb14610390578063b54f3336146103a357600080fd5b806397aba7f9116100b257806397aba7f91461032157806397dc4a131461034c578063a7bb58031461035f57600080fd5b80637f968ac7146102de578063835fc6ca146102fe57600080fd5b80632c8a1bea116101245780634cc3bf6f116101095780634cc3bf6f1461028f57806367d0e505146102a257806370a08231146102b557600080fd5b80632c8a1bea146101ba578063313ce5671461025057600080fd5b80630a0e5c9d146101565780631360569d1461016b57806317df34f11461017e57806329c15398146101a7575b600080fd5b610169610164366004611461565b61043d565b005b61016961017936600461148b565b6106d4565b61019161018c36600461148b565b6107ec565b60405161019e91906114ad565b60405180910390f35b6101696101b53660046115b5565b610862565b6102426101c836600461161d565b60408051606095861b6bffffffffffffffffffffffff199081166020808401919091529590961b9095166034860152604885019290925260c01b7fffffffffffffffff0000000000000000000000000000000000000000000000001660688401528051605081850301815260709093019052815191012090565b60405190815260200161019e565b60015461027d907c0100000000000000000000000000000000000000000000000000000000900460ff1681565b60405160ff909116815260200161019e565b61016961029d36600461148b565b610a76565b6101916102b036600461148b565b610c27565b6102426102c336600461148b565b6001600160a01b031660009081526020819052604090205490565b6102f16102ec36600461166a565b610c9b565b60405161019e91906116b3565b61031161030c36600461170b565b610d3b565b604051901515815260200161019e565b61033461032f366004611724565b610e57565b6040516001600160a01b03909116815260200161019e565b61024261035a36600461170b565b610ed6565b61037261036d36600461176b565b610f12565b60408051938452602084019290925260ff169082015260600161019e565b61031161039e366004611461565b610f86565b6101696103b1366004611461565b61117c565b6103116103c436600461170b565b6112e4565b6102426103d736600461170b565b6040517f19457468657265756d205369676e6564204d6573736167653a0a3332000000006020820152603c8101829052600090605c01604051602081830303815290604052805190602001209050919050565b600154610334906001600160a01b031681565b33600090815260208190526040902054808211156104b65760405162461bcd60e51b815260206004820152602b60248201527f796f7520646f206e6f742068617665207468652062616c616e636520746f206660448201526a1d5b990818da185b9b995b60aa1b60648201526084015b60405180910390fd5b3360009081526002602081815260408084206001600160a01b038816855290915282206001015460ff16908111156104f0576104f061169d565b146105635760405162461bcd60e51b815260206004820152603660248201527f6368616e6e656c20616c7265616479206f70656e6564207573652073656e646560448201527f7246756e644368616e6e656c282920696e73746561640000000000000000000060648201526084016104ad565b33600081815260208181526040808320868603905580518083018252838152815160808101835287815260018185018181528285018490526060830187905296865260028086528487206001600160a01b038c1688529095529290942084518155945185830180549296949193909260ff19169184908111156105e8576105e861169d565b02179055506040828101515160028301556060909201516003918201805467ffffffffffffffff191667ffffffffffffffff90921691909117905533600081815260209283528381208054600181810183559183528483200180547fffffffffffffffffffffffff00000000000000000000000000000000000000009081166001600160a01b038c16908117909255818452600486528684208054938401815584529285902090910180549092168317909155925186815290917f2d48ac6acd9c250f93c75e6a8dd61f6f1c062b7f83c1f604cf41a3352df683fc91015b60405180910390a350505050565b338160016001600160a01b03808416600090815260026020818152604080842094871684529390529190206001015460ff16908111156107165761071661169d565b146107635760405162461bcd60e51b815260206004820152601360248201527f4368616e6e656c206973206e6f74206f70656e0000000000000000000000000060448201526064016104ad565b3360008181526002602081815260408084206001600160a01b0389168086529083529381902060018101805460ff19169094179093556003909201805467ffffffffffffffff19164267ffffffffffffffff8116918217909255925192835293917ffc045bfcf0d75e572946e42f3b53bac7ec2a832f291f8cce267876742d820ebd91016106c6565b6001600160a01b03811660009081526004602090815260409182902080548351818402810184019094528084526060939283018282801561085657602002820191906000526020600020905b81546001600160a01b03168152600190910190602001808311610838575b50505050509050919050565b6001600160a01b038416600090815260026020818152604080842033855290915290912001548267ffffffffffffffff161461089d57600080fd5b6001600160a01b03841660009081526002602090815260408083203384529091529020548311156108cd57600080fd5b60408051606086811b6bffffffffffffffffffffffff199081166020808501919091523390921b1660348301526048820186905260c085901b7fffffffffffffffff000000000000000000000000000000000000000000000000166068830152825160508184030181526070830184528051908201207f19457468657265756d205369676e6564204d6573736167653a0a333200000000609084015260ac8084018290528451808503909101815260cc9093019093528151910120856001600160a01b031661099c8285610e57565b6001600160a01b0316146109af57600080fd5b6001600160a01b0386166000908152600260209081526040808320338452909152812080548792906109e29084906117be565b90915550506001600160a01b038616600090815260026020818152604080842033855282528084209092018054600101905582905281208054879290610a299084906117d1565b909155505060405185815233906001600160a01b038816907f3bb082152a6aeca4accd7a549583361cf3387c060a33681f9bc6f22fa6333f8c9060200160405180910390a3505050505050565b3360008181526002602081815260408084206001600160a01b03871685529091529091206001015483919060ff1681811115610ab457610ab461169d565b14610b015760405162461bcd60e51b815260206004820152601560248201527f4368616e6e656c206973206e6f74206c6f636b6564000000000000000000000060448201526064016104ad565b3360009081526002602090815260408083206001600160a01b038716845290915290206003015460015467ffffffffffffffff91821691610b5b9174010000000000000000000000000000000000000000900416826117e4565b67ffffffffffffffff164210610b7057600080fd5b3360008181526002602090815260408083206001600160a01b038916845282528083208054908490559383529082905281208054839290610bb29084906117d1565b90915550503360008181526002602090815260408083206001600160a01b038a16808552908352928190206001908101805460ff19169091179055518481529192917f3bb082152a6aeca4accd7a549583361cf3387c060a33681f9bc6f22fa6333f8c91015b60405180910390a35050505050565b6001600160a01b038116600090815260036020908152604091829020805483518184028101840190945280845260609392830182828015610856576020028201919060005260206000209081546001600160a01b031681526001909101906020018083116108385750505050509050919050565b610ca3611408565b6001600160a01b038084166000908152600260208181526040808420948716845293815291839020835160808101909452805484526001810154909284019160ff90911690811115610cf757610cf761169d565b6002811115610d0857610d0861169d565b815260408051602081810183526002850154825283015260039092015467ffffffffffffffff1691015290505b92915050565b3360008181526020819052604081205490919080841115610d5b57600080fd5b6001600160a01b0382811660008181526020819052604090819020878503905560015490517fa9059cbb0000000000000000000000000000000000000000000000000000000081526004810192909252602482018790529091169063a9059cbb906044016020604051808303816000875af1158015610dde573d6000803e3d6000fd5b505050506040513d601f19601f82011682018060405250810190610e02919061180c565b50604080516001600160a01b0384168152600060208201529081018590527fddf252ad1be2c89b69c2b068fc378daa952ba7f163c4a11628f55a4df523b3ef9060600160405180910390a15060019392505050565b600080600080610e6685610f12565b6040805160008152602081018083528b905260ff8316918101919091526060810184905260808101839052929550909350915060019060a0016020604051602081039080840390855afa158015610ec1573d6000803e3d6000fd5b5050604051601f190151979650505050505050565b33600090815260208190526040812080548391908390610ef79084906117d1565b90915550503360009081526020819052604090205492915050565b60008060008351604114610f685760405162461bcd60e51b815260206004820152601860248201527f696e76616c6964207369676e6174757265206c656e677468000000000000000060448201526064016104ad565b50505060208101516040820151606090920151909260009190911a90565b60003380610ffc5760405162461bcd60e51b815260206004820152602560248201527f45524332303a207472616e736665722066726f6d20746865207a65726f20616460448201527f647265737300000000000000000000000000000000000000000000000000000060648201526084016104ad565b6001600160a01b0384166110785760405162461bcd60e51b815260206004820152602360248201527f45524332303a207472616e7366657220746f20746865207a65726f206164647260448201527f657373000000000000000000000000000000000000000000000000000000000060648201526084016104ad565b6001600160a01b038116600090815260208190526040902054838110156111075760405162461bcd60e51b815260206004820152602660248201527f45524332303a207472616e7366657220616d6f756e742065786365656473206260448201527f616c616e6365000000000000000000000000000000000000000000000000000060648201526084016104ad565b6001600160a01b0382811660008181526020818152604080832089870390559389168083529184902080548901905583519283528201529081018590527fddf252ad1be2c89b69c2b068fc378daa952ba7f163c4a11628f55a4df523b3ef9060600160405180910390a1506001949350505050565b338260016001600160a01b03808416600090815260026020818152604080842094871684529390529190206001015460ff16908111156111be576111be61169d565b1461120b5760405162461bcd60e51b815260206004820152601360248201527f4368616e6e656c206973206e6f74206f70656e0000000000000000000000000060448201526064016104ad565b336000908152602081905260409020548084111561127f5760405162461bcd60e51b815260206004820152602b60248201527f796f7520646f206e6f742068617665207468652062616c616e636520746f206660448201526a1d5b990818da185b9b995b60aa1b60648201526084016104ad565b336000818152602081815260408083208886039055600282528083206001600160a01b038a1680855290835292819020805489019055518781529192917f2d48ac6acd9c250f93c75e6a8dd61f6f1c062b7f83c1f604cf41a3352df683fc9101610c18565b6001546040517f23b872dd00000000000000000000000000000000000000000000000000000000815233600482018190523060248301526044820184905260009290916001600160a01b03909116906323b872dd906064016020604051808303816000875af115801561135b573d6000803e3d6000fd5b505050506040513d601f19601f8201168201806040525081019061137f919061180c565b61138857600080fd5b6001600160a01b038116600090815260208190526040812080548592906113b09084906117d1565b909155505060408051600081526001600160a01b03831660208201529081018490527fddf252ad1be2c89b69c2b068fc378daa952ba7f163c4a11628f55a4df523b3ef9060600160405180910390a150600192915050565b60408051608081019091526000808252602082019081526020016114386040518060200160405280600081525090565b8152600060209091015290565b80356001600160a01b038116811461145c57600080fd5b919050565b6000806040838503121561147457600080fd5b61147d83611445565b946020939093013593505050565b60006020828403121561149d57600080fd5b6114a682611445565b9392505050565b6020808252825182820181905260009190848201906040850190845b818110156114ee5783516001600160a01b0316835292840192918401916001016114c9565b50909695505050505050565b803567ffffffffffffffff8116811461145c57600080fd5b634e487b7160e01b600052604160045260246000fd5b600082601f83011261153957600080fd5b813567ffffffffffffffff8082111561155457611554611512565b604051601f8301601f19908116603f0116810190828211818310171561157c5761157c611512565b8160405283815286602085880101111561159557600080fd5b836020870160208301376000602085830101528094505050505092915050565b600080600080608085870312156115cb57600080fd5b6115d485611445565b9350602085013592506115e9604086016114fa565b9150606085013567ffffffffffffffff81111561160557600080fd5b61161187828801611528565b91505092959194509250565b6000806000806080858703121561163357600080fd5b61163c85611445565b935061164a60208601611445565b92506040850135915061165f606086016114fa565b905092959194509250565b6000806040838503121561167d57600080fd5b61168683611445565b915061169460208401611445565b90509250929050565b634e487b7160e01b600052602160045260246000fd5b8151815260208201516080820190600381106116df57634e487b7160e01b600052602160045260246000fd5b80602084015250604083015151604083015267ffffffffffffffff606084015116606083015292915050565b60006020828403121561171d57600080fd5b5035919050565b6000806040838503121561173757600080fd5b82359150602083013567ffffffffffffffff81111561175557600080fd5b61176185828601611528565b9150509250929050565b60006020828403121561177d57600080fd5b813567ffffffffffffffff81111561179457600080fd5b6117a084828501611528565b949350505050565b634e487b7160e01b600052601160045260246000fd5b81810381811115610d3557610d356117a8565b80820180821115610d3557610d356117a8565b67ffffffffffffffff818116838216019080821115611805576118056117a8565b5092915050565b60006020828403121561181e57600080fd5b815180151581146114a657600080fdfea2646970667358221220c9004a1bcc2186b4aae5961cb24a436a4e9cf56c5c1c853a8662ca1de5aa6dad64736f6c63430008110033",
  "linkReferences": {},
  "deployedLinkReferences": {}
}