{
  "_format": "hh-sol-artifact-1",
  "contractName": "Channel",
  "sourceName": "contracts/channel.sol",
  "abi": [
    {
      "inputs": [
        {
          "internalType": "address",
          "name": "_token",
          "type": "address"
        }
      ],
      "stateMutability": "nonpayable",
      "type": "constructor"
    },
    {
      "anonymous": false,
      "inputs": [
        {
          "indexed": true,
          "internalType": "address",
          "name": "from",
          "type": "address"
        },
        {
          "indexed": true,
          "internalType": "address",
          "name": "to",
          "type": "address"
        },
        {
          "indexed": false,
          "internalType": "uint256",
          "name": "amount",
          "type": "uint256"
        }
      ],
      "name": "Defund",
      "type": "event"
    },
    {
      "anonymous": false,
      "inputs": [
        {
          "indexed": true,
          "internalType": "address",
          "name": "from",
          "type": "address"
        },
        {
          "indexed": true,
          "internalType": "address",
          "name": "to",
          "type": "address"
        },
        {
          "indexed": false,
          "internalType": "uint256",
          "name": "amount",
          "type": "uint256"
        }
      ],
      "name": "Fund",
      "type": "event"
    },
    {
      "anonymous": false,
      "inputs": [
        {
          "indexed": true,
          "internalType": "address",
          "name": "from",
          "type": "address"
        },
        {
          "indexed": true,
          "internalType": "address",
          "name": "to",
          "type": "address"
        },
        {
          "indexed": false,
          "internalType": "uint64",
          "name": "time",
          "type": "uint64"
        }
      ],
      "name": "Lock",
      "type": "event"
    },
    {
      "anonymous": false,
      "inputs": [
        {
          "indexed": false,
          "internalType": "address",
          "name": "from",
          "type": "address"
        },
        {
          "indexed": false,
          "internalType": "address",
          "name": "to",
          "type": "address"
        },
        {
          "indexed": false,
          "internalType": "uint256",
          "name": "amount",
          "type": "uint256"
        }
      ],
      "name": "Transfer",
      "type": "event"
    },
    {
      "inputs": [
        {
          "internalType": "uint256",
          "name": "amount",
          "type": "uint256"
        }
      ],
      "name": "airdrop",
      "outputs": [
        {
          "internalType": "uint256",
          "name": "",
          "type": "uint256"
        }
      ],
      "stateMutability": "nonpayable",
      "type": "function"
    },
    {
      "inputs": [
        {
          "internalType": "address",
          "name": "account",
          "type": "address"
        }
      ],
      "name": "balanceOf",
      "outputs": [
        {
          "internalType": "uint256",
          "name": "",
          "type": "uint256"
        }
      ],
      "stateMutability": "view",
      "type": "function"
    },
    {
      "inputs": [],
      "name": "decimals",
      "outputs": [
        {
          "internalType": "uint8",
          "name": "",
          "type": "uint8"
        }
      ],
      "stateMutability": "view",
      "type": "function"
    },
    {
      "inputs": [
        {
          "internalType": "uint256",
          "name": "amount",
          "type": "uint256"
        }
      ],
      "name": "deposit",
      "outputs": [
        {
          "internalType": "bool",
          "name": "",
          "type": "bool"
        }
      ],
      "stateMutability": "nonpayable",
      "type": "function"
    },
    {
      "inputs": [
        {
          "internalType": "address",
          "name": "from",
          "type": "address"
        },
        {
          "internalType": "address",
          "name": "to",
          "type": "address"
        }
      ],
      "name": "getChannelByAddresses",
      "outputs": [
        {
          "components": [
            {
              "internalType": "uint256",
              "name": "value",
              "type": "uint256"
            },
            {
              "internalType": "enum Channel.State",
              "name": "state",
              "type": "uint8"
            },
            {
              "components": [
                {
                  "internalType": "uint256",
                  "name": "_value",
                  "type": "uint256"
                }
              ],
              "internalType": "struct Counters.Counter",
              "name": "round",
              "type": "tuple"
            },
            {
              "internalType": "uint64",
              "name": "lockTime",
              "type": "uint64"
            }
          ],
          "internalType": "struct Channel.ChannelState",
          "name": "",
          "type": "tuple"
        }
      ],
      "stateMutability": "view",
      "type": "function"
    },
    {
      "inputs": [
        {
          "internalType": "address",
          "name": "sender",
          "type": "address"
        }
      ],
      "name": "getChannelReciversBySender",
      "outputs": [
        {
          "internalType": "address[]",
          "name": "",
          "type": "address[]"
        }
      ],
      "stateMutability": "view",
      "type": "function"
    },
    {
      "inputs": [
        {
          "internalType": "address",
          "name": "reciver",
          "type": "address"
        }
      ],
      "name": "getChannelSendersByReciver",
      "outputs": [
        {
          "internalType": "address[]",
          "name": "",
          "type": "address[]"
        }
      ],
      "stateMutability": "view",
      "type": "function"
    },
    {
      "inputs": [
        {
          "internalType": "bytes32",
          "name": "_messageHash",
          "type": "bytes32"
        }
      ],
      "name": "getEthSignedMessageHash",
      "outputs": [
        {
          "internalType": "bytes32",
          "name": "",
          "type": "bytes32"
        }
      ],
      "stateMutability": "pure",
      "type": "function"
    },
    {
      "inputs": [
        {
          "internalType": "address",
          "name": "reciver",
          "type": "address"
        },
        {
          "internalType": "uint256",
          "name": "amount",
          "type": "uint256"
        },
        {
          "internalType": "uint64",
          "name": "round",
          "type": "uint64"
        }
      ],
      "name": "getMessageHash",
      "outputs": [
        {
          "internalType": "bytes32",
          "name": "",
          "type": "bytes32"
        }
      ],
      "stateMutability": "pure",
      "type": "function"
    },
    {
      "inputs": [
        {
          "internalType": "address",
          "name": "to",
          "type": "address"
        },
        {
          "internalType": "uint256",
          "name": "value",
          "type": "uint256"
        }
      ],
      "name": "open",
      "outputs": [],
      "stateMutability": "nonpayable",
      "type": "function"
    },
    {
      "inputs": [
        {
          "internalType": "address",
          "name": "from",
          "type": "address"
        },
        {
          "internalType": "uint256",
          "name": "amount",
          "type": "uint256"
        },
        {
          "internalType": "uint64",
          "name": "round",
          "type": "uint64"
        },
        {
          "internalType": "bytes",
          "name": "sig",
          "type": "bytes"
        }
      ],
      "name": "reciverCollectPayment",
      "outputs": [],
      "stateMutability": "nonpayable",
      "type": "function"
    },
    {
      "inputs": [
        {
          "internalType": "bytes32",
          "name": "_ethSignedMessageHash",
          "type": "bytes32"
        },
        {
          "internalType": "bytes",
          "name": "_signature",
          "type": "bytes"
        }
      ],
      "name": "recoverSigner",
      "outputs": [
        {
          "internalType": "address",
          "name": "",
          "type": "address"
        }
      ],
      "stateMutability": "pure",
      "type": "function"
    },
    {
      "inputs": [
        {
          "internalType": "address",
          "name": "to",
          "type": "address"
        },
        {
          "internalType": "uint256",
          "name": "amount",
          "type": "uint256"
        }
      ],
      "name": "senderFundChannel",
      "outputs": [],
      "stateMutability": "nonpayable",
      "type": "function"
    },
    {
      "inputs": [
        {
          "internalType": "address",
          "name": "to",
          "type": "address"
        }
      ],
      "name": "senderLock",
      "outputs": [],
      "stateMutability": "nonpayable",
      "type": "function"
    },
    {
      "inputs": [
        {
          "internalType": "address",
          "name": "to",
          "type": "address"
        }
      ],
      "name": "senderWithdrawal",
      "outputs": [],
      "stateMutability": "nonpayable",
      "type": "function"
    },
    {
      "inputs": [
        {
          "internalType": "bytes",
          "name": "sig",
          "type": "bytes"
        }
      ],
      "name": "splitSignature",
      "outputs": [
        {
          "internalType": "bytes32",
          "name": "r",
          "type": "bytes32"
        },
        {
          "internalType": "bytes32",
          "name": "s",
          "type": "bytes32"
        },
        {
          "internalType": "uint8",
          "name": "v",
          "type": "uint8"
        }
      ],
      "stateMutability": "pure",
      "type": "function"
    },
    {
      "inputs": [],
      "name": "token",
      "outputs": [
        {
          "internalType": "contract IERC20",
          "name": "",
          "type": "address"
        }
      ],
      "stateMutability": "view",
      "type": "function"
    },
    {
      "inputs": [
        {
          "internalType": "address",
          "name": "to",
          "type": "address"
        },
        {
          "internalType": "uint256",
          "name": "amount",
          "type": "uint256"
        }
      ],
      "name": "transfer",
      "outputs": [
        {
          "internalType": "bool",
          "name": "",
          "type": "bool"
        }
      ],
      "stateMutability": "nonpayable",
      "type": "function"
    },
    {
      "inputs": [
        {
          "internalType": "uint256",
          "name": "amount",
          "type": "uint256"
        }
      ],
      "name": "withdrawal",
      "outputs": [
        {
          "internalType": "bool",
          "name": "",
          "type": "bool"
        }
      ],
      "stateMutability": "nonpayable",
      "type": "function"
    }
  ],
  "bytecode": "0x608060405260018054600160a01b600160e81b0319167c120000000000015180000000000000000000000000000000000000000017905534801561004257600080fd5b5060405161190538038061190583398101604081905261006191610086565b600180546001600160a01b0319166001600160a01b03929092169190911790556100b6565b60006020828403121561009857600080fd5b81516001600160a01b03811681146100af57600080fd5b9392505050565b611840806100c56000396000f3fe608060405234801561001057600080fd5b50600436106101515760003560e01c80637f968ac7116100cd578063a9059cbb11610081578063b6b55f2511610066578063b6b55f25146103b0578063fa540801146103c3578063fc0c546a1461042457600080fd5b8063a9059cbb1461038a578063b54f33361461039d57600080fd5b806397aba7f9116100b257806397aba7f91461031b57806397dc4a1314610346578063a7bb58031461035957600080fd5b80637f968ac7146102d8578063835fc6ca146102f857600080fd5b8063313ce567116101245780634cc3bf6f116101095780634cc3bf6f1461028957806367d0e5051461029c57806370a08231146102af57600080fd5b8063313ce567146101ba5780633ebf411a146101f957600080fd5b80630a0e5c9d146101565780631360569d1461016b57806317df34f11461017e57806329c15398146101a7575b600080fd5b61016961016436600461144e565b610437565b005b610169610179366004611478565b6106ce565b61019161018c366004611478565b6107e6565b60405161019e919061149a565b60405180910390f35b6101696101b53660046115a2565b61085c565b6001546101e7907c0100000000000000000000000000000000000000000000000000000000900460ff1681565b60405160ff909116815260200161019e565b61027b61020736600461160a565b6040516bffffffffffffffffffffffff19606085901b166020820152603481018390527fffffffffffffffff00000000000000000000000000000000000000000000000060c083901b166054820152600090605c016040516020818303038152906040528051906020012090509392505050565b60405190815260200161019e565b610169610297366004611478565b610a63565b6101916102aa366004611478565b610c14565b61027b6102bd366004611478565b6001600160a01b031660009081526020819052604090205490565b6102eb6102e6366004611646565b610c88565b60405161019e919061168f565b61030b6103063660046116e7565b610d28565b604051901515815260200161019e565b61032e610329366004611700565b610e44565b6040516001600160a01b03909116815260200161019e565b61027b6103543660046116e7565b610ec3565b61036c610367366004611747565b610eff565b60408051938452602084019290925260ff169082015260600161019e565b61030b61039836600461144e565b610f73565b6101696103ab36600461144e565b611169565b61030b6103be3660046116e7565b6112d1565b61027b6103d13660046116e7565b6040517f19457468657265756d205369676e6564204d6573736167653a0a3332000000006020820152603c8101829052600090605c01604051602081830303815290604052805190602001209050919050565b60015461032e906001600160a01b031681565b33600090815260208190526040902054808211156104b05760405162461bcd60e51b815260206004820152602b60248201527f796f7520646f206e6f742068617665207468652062616c616e636520746f206660448201526a1d5b990818da185b9b995b60aa1b60648201526084015b60405180910390fd5b3360009081526002602081815260408084206001600160a01b038816855290915282206001015460ff16908111156104ea576104ea611679565b1461055d5760405162461bcd60e51b815260206004820152603660248201527f6368616e6e656c20616c7265616479206f70656e6564207573652073656e646560448201527f7246756e644368616e6e656c282920696e73746561640000000000000000000060648201526084016104a7565b33600081815260208181526040808320868603905580518083018252838152815160808101835287815260018185018181528285018490526060830187905296865260028086528487206001600160a01b038c1688529095529290942084518155945185830180549296949193909260ff19169184908111156105e2576105e2611679565b02179055506040828101515160028301556060909201516003918201805467ffffffffffffffff191667ffffffffffffffff90921691909117905533600081815260209283528381208054600181810183559183528483200180547fffffffffffffffffffffffff00000000000000000000000000000000000000009081166001600160a01b038c16908117909255818452600486528684208054938401815584529285902090910180549092168317909155925186815290917f2d48ac6acd9c250f93c75e6a8dd61f6f1c062b7f83c1f604cf41a3352df683fc91015b60405180910390a350505050565b338160016001600160a01b03808416600090815260026020818152604080842094871684529390529190206001015460ff169081111561071057610710611679565b1461075d5760405162461bcd60e51b815260206004820152601360248201527f4368616e6e656c206973206e6f74206f70656e0000000000000000000000000060448201526064016104a7565b3360008181526002602081815260408084206001600160a01b0389168086529083529381902060018101805460ff19169094179093556003909201805467ffffffffffffffff19164267ffffffffffffffff8116918217909255925192835293917ffc045bfcf0d75e572946e42f3b53bac7ec2a832f291f8cce267876742d820ebd91016106c0565b6001600160a01b03811660009081526004602090815260409182902080548351818402810184019094528084526060939283018282801561085057602002820191906000526020600020905b81546001600160a01b03168152600190910190602001808311610832575b50505050509050919050565b6001600160a01b038416600090815260026020818152604080842033855290915290912001548267ffffffffffffffff161461089757600080fd5b6001600160a01b03841660009081526002602090815260408083203384529091529020548311156108c757600080fd5b604080516bffffffffffffffffffffffff193360601b16602080830191909152603482018690527fffffffffffffffff00000000000000000000000000000000000000000000000060c086901b1660548301528251808303603c018152605c830184528051908201207f19457468657265756d205369676e6564204d6573736167653a0a333200000000607c84015260988084018290528451808503909101815260b89093019093528151910120856001600160a01b03166109898285610e44565b6001600160a01b03161461099c57600080fd5b6001600160a01b0386166000908152600260209081526040808320338452909152812080548792906109cf90849061179a565b90915550506001600160a01b038616600090815260026020818152604080842033855282528084209092018054600101905582905281208054879290610a169084906117ad565b909155505060405185815233906001600160a01b038816907f3bb082152a6aeca4accd7a549583361cf3387c060a33681f9bc6f22fa6333f8c9060200160405180910390a3505050505050565b3360008181526002602081815260408084206001600160a01b03871685529091529091206001015483919060ff1681811115610aa157610aa1611679565b14610aee5760405162461bcd60e51b815260206004820152601560248201527f4368616e6e656c206973206e6f74206c6f636b6564000000000000000000000060448201526064016104a7565b3360009081526002602090815260408083206001600160a01b038716845290915290206003015460015467ffffffffffffffff91821691610b489174010000000000000000000000000000000000000000900416826117c0565b67ffffffffffffffff164210610b5d57600080fd5b3360008181526002602090815260408083206001600160a01b038916845282528083208054908490559383529082905281208054839290610b9f9084906117ad565b90915550503360008181526002602090815260408083206001600160a01b038a16808552908352928190206001908101805460ff19169091179055518481529192917f3bb082152a6aeca4accd7a549583361cf3387c060a33681f9bc6f22fa6333f8c91015b60405180910390a35050505050565b6001600160a01b038116600090815260036020908152604091829020805483518184028101840190945280845260609392830182828015610850576020028201919060005260206000209081546001600160a01b031681526001909101906020018083116108325750505050509050919050565b610c906113f5565b6001600160a01b038084166000908152600260208181526040808420948716845293815291839020835160808101909452805484526001810154909284019160ff90911690811115610ce457610ce4611679565b6002811115610cf557610cf5611679565b815260408051602081810183526002850154825283015260039092015467ffffffffffffffff1691015290505b92915050565b3360008181526020819052604081205490919080841115610d4857600080fd5b6001600160a01b0382811660008181526020819052604090819020878503905560015490517fa9059cbb0000000000000000000000000000000000000000000000000000000081526004810192909252602482018790529091169063a9059cbb906044016020604051808303816000875af1158015610dcb573d6000803e3d6000fd5b505050506040513d601f19601f82011682018060405250810190610def91906117e8565b50604080516001600160a01b0384168152600060208201529081018590527fddf252ad1be2c89b69c2b068fc378daa952ba7f163c4a11628f55a4df523b3ef9060600160405180910390a15060019392505050565b600080600080610e5385610eff565b6040805160008152602081018083528b905260ff8316918101919091526060810184905260808101839052929550909350915060019060a0016020604051602081039080840390855afa158015610eae573d6000803e3d6000fd5b5050604051601f190151979650505050505050565b33600090815260208190526040812080548391908390610ee49084906117ad565b90915550503360009081526020819052604090205492915050565b60008060008351604114610f555760405162461bcd60e51b815260206004820152601860248201527f696e76616c6964207369676e6174757265206c656e677468000000000000000060448201526064016104a7565b50505060208101516040820151606090920151909260009190911a90565b60003380610fe95760405162461bcd60e51b815260206004820152602560248201527f45524332303a207472616e736665722066726f6d20746865207a65726f20616460448201527f647265737300000000000000000000000000000000000000000000000000000060648201526084016104a7565b6001600160a01b0384166110655760405162461bcd60e51b815260206004820152602360248201527f45524332303a207472616e7366657220746f20746865207a65726f206164647260448201527f657373000000000000000000000000000000000000000000000000000000000060648201526084016104a7565b6001600160a01b038116600090815260208190526040902054838110156110f45760405162461bcd60e51b815260206004820152602660248201527f45524332303a207472616e7366657220616d6f756e742065786365656473206260448201527f616c616e6365000000000000000000000000000000000000000000000000000060648201526084016104a7565b6001600160a01b0382811660008181526020818152604080832089870390559389168083529184902080548901905583519283528201529081018590527fddf252ad1be2c89b69c2b068fc378daa952ba7f163c4a11628f55a4df523b3ef9060600160405180910390a1506001949350505050565b338260016001600160a01b03808416600090815260026020818152604080842094871684529390529190206001015460ff16908111156111ab576111ab611679565b146111f85760405162461bcd60e51b815260206004820152601360248201527f4368616e6e656c206973206e6f74206f70656e0000000000000000000000000060448201526064016104a7565b336000908152602081905260409020548084111561126c5760405162461bcd60e51b815260206004820152602b60248201527f796f7520646f206e6f742068617665207468652062616c616e636520746f206660448201526a1d5b990818da185b9b995b60aa1b60648201526084016104a7565b336000818152602081815260408083208886039055600282528083206001600160a01b038a1680855290835292819020805489019055518781529192917f2d48ac6acd9c250f93c75e6a8dd61f6f1c062b7f83c1f604cf41a3352df683fc9101610c05565b6001546040517f23b872dd00000000000000000000000000000000000000000000000000000000815233600482018190523060248301526044820184905260009290916001600160a01b03909116906323b872dd906064016020604051808303816000875af1158015611348573d6000803e3d6000fd5b505050506040513d601f19601f8201168201806040525081019061136c91906117e8565b61137557600080fd5b6001600160a01b0381166000908152602081905260408120805485929061139d9084906117ad565b909155505060408051600081526001600160a01b03831660208201529081018490527fddf252ad1be2c89b69c2b068fc378daa952ba7f163c4a11628f55a4df523b3ef9060600160405180910390a150600192915050565b60408051608081019091526000808252602082019081526020016114256040518060200160405280600081525090565b8152600060209091015290565b80356001600160a01b038116811461144957600080fd5b919050565b6000806040838503121561146157600080fd5b61146a83611432565b946020939093013593505050565b60006020828403121561148a57600080fd5b61149382611432565b9392505050565b6020808252825182820181905260009190848201906040850190845b818110156114db5783516001600160a01b0316835292840192918401916001016114b6565b50909695505050505050565b803567ffffffffffffffff8116811461144957600080fd5b634e487b7160e01b600052604160045260246000fd5b600082601f83011261152657600080fd5b813567ffffffffffffffff80821115611541576115416114ff565b604051601f8301601f19908116603f01168101908282118183101715611569576115696114ff565b8160405283815286602085880101111561158257600080fd5b836020870160208301376000602085830101528094505050505092915050565b600080600080608085870312156115b857600080fd5b6115c185611432565b9350602085013592506115d6604086016114e7565b9150606085013567ffffffffffffffff8111156115f257600080fd5b6115fe87828801611515565b91505092959194509250565b60008060006060848603121561161f57600080fd5b61162884611432565b92506020840135915061163d604085016114e7565b90509250925092565b6000806040838503121561165957600080fd5b61166283611432565b915061167060208401611432565b90509250929050565b634e487b7160e01b600052602160045260246000fd5b8151815260208201516080820190600381106116bb57634e487b7160e01b600052602160045260246000fd5b80602084015250604083015151604083015267ffffffffffffffff606084015116606083015292915050565b6000602082840312156116f957600080fd5b5035919050565b6000806040838503121561171357600080fd5b82359150602083013567ffffffffffffffff81111561173157600080fd5b61173d85828601611515565b9150509250929050565b60006020828403121561175957600080fd5b813567ffffffffffffffff81111561177057600080fd5b61177c84828501611515565b949350505050565b634e487b7160e01b600052601160045260246000fd5b81810381811115610d2257610d22611784565b80820180821115610d2257610d22611784565b67ffffffffffffffff8181168382160190808211156117e1576117e1611784565b5092915050565b6000602082840312156117fa57600080fd5b8151801515811461149357600080fdfea264697066735822122080be959ff56d78ba28b6033fc9074088d4a57deceb7b284917d779604b7a284564736f6c63430008110033",
  "linkReferences": {},
  "deployedLinkReferences": {}
}