{
  "_format": "hh-sol-artifact-1",
  "contractName": "Channel",
  "sourceName": "contracts/channel.sol",
  "abi": [
    {
      "inputs": [
        {
          "internalType": "address",
          "name": "_token",
          "type": "address"
        },
        {
          "internalType": "address",
          "name": "_networkProvider",
          "type": "address"
        },
        {
          "internalType": "uint256",
          "name": "_providerFee",
          "type": "uint256"
        }
      ],
      "stateMutability": "nonpayable",
      "type": "constructor"
    },
    {
      "anonymous": false,
      "inputs": [
        {
          "indexed": true,
          "internalType": "address",
          "name": "from",
          "type": "address"
        },
        {
          "indexed": true,
          "internalType": "address",
          "name": "to",
          "type": "address"
        },
        {
          "indexed": false,
          "internalType": "uint256",
          "name": "amount",
          "type": "uint256"
        }
      ],
      "name": "Defund",
      "type": "event"
    },
    {
      "anonymous": false,
      "inputs": [
        {
          "indexed": true,
          "internalType": "address",
          "name": "from",
          "type": "address"
        },
        {
          "indexed": true,
          "internalType": "address",
          "name": "to",
          "type": "address"
        },
        {
          "indexed": false,
          "internalType": "uint256",
          "name": "amount",
          "type": "uint256"
        }
      ],
      "name": "Fund",
      "type": "event"
    },
    {
      "anonymous": false,
      "inputs": [
        {
          "indexed": true,
          "internalType": "address",
          "name": "from",
          "type": "address"
        },
        {
          "indexed": true,
          "internalType": "address",
          "name": "to",
          "type": "address"
        },
        {
          "indexed": false,
          "internalType": "uint256",
          "name": "time",
          "type": "uint256"
        }
      ],
      "name": "Lock",
      "type": "event"
    },
    {
      "anonymous": false,
      "inputs": [
        {
          "indexed": false,
          "internalType": "address",
          "name": "from",
          "type": "address"
        },
        {
          "indexed": false,
          "internalType": "address",
          "name": "to",
          "type": "address"
        },
        {
          "indexed": false,
          "internalType": "uint256",
          "name": "amount",
          "type": "uint256"
        }
      ],
      "name": "Transfer",
      "type": "event"
    },
    {
      "inputs": [
        {
          "internalType": "uint256",
          "name": "amount",
          "type": "uint256"
        }
      ],
      "name": "airdrop",
      "outputs": [
        {
          "internalType": "uint256",
          "name": "",
          "type": "uint256"
        }
      ],
      "stateMutability": "nonpayable",
      "type": "function"
    },
    {
      "inputs": [
        {
          "internalType": "address",
          "name": "account",
          "type": "address"
        }
      ],
      "name": "balanceOf",
      "outputs": [
        {
          "internalType": "uint256",
          "name": "",
          "type": "uint256"
        }
      ],
      "stateMutability": "view",
      "type": "function"
    },
    {
      "inputs": [],
      "name": "decimals",
      "outputs": [
        {
          "internalType": "uint8",
          "name": "",
          "type": "uint8"
        }
      ],
      "stateMutability": "view",
      "type": "function"
    },
    {
      "inputs": [
        {
          "internalType": "uint256",
          "name": "amount",
          "type": "uint256"
        }
      ],
      "name": "deposit",
      "outputs": [
        {
          "internalType": "bool",
          "name": "",
          "type": "bool"
        }
      ],
      "stateMutability": "nonpayable",
      "type": "function"
    },
    {
      "inputs": [
        {
          "internalType": "address",
          "name": "from",
          "type": "address"
        },
        {
          "internalType": "address",
          "name": "to",
          "type": "address"
        }
      ],
      "name": "getChannelByAddresses",
      "outputs": [
        {
          "components": [
            {
              "internalType": "uint256",
              "name": "value",
              "type": "uint256"
            },
            {
              "internalType": "enum Channel.State",
              "name": "state",
              "type": "uint8"
            },
            {
              "components": [
                {
                  "internalType": "uint256",
                  "name": "_value",
                  "type": "uint256"
                }
              ],
              "internalType": "struct Counters.Counter",
              "name": "round",
              "type": "tuple"
            },
            {
              "internalType": "uint256",
              "name": "lockTime",
              "type": "uint256"
            }
          ],
          "internalType": "struct Channel.ChannelState",
          "name": "",
          "type": "tuple"
        }
      ],
      "stateMutability": "view",
      "type": "function"
    },
    {
      "inputs": [
        {
          "internalType": "address",
          "name": "sender",
          "type": "address"
        }
      ],
      "name": "getChannelReciversBySender",
      "outputs": [
        {
          "internalType": "address[]",
          "name": "",
          "type": "address[]"
        }
      ],
      "stateMutability": "view",
      "type": "function"
    },
    {
      "inputs": [
        {
          "internalType": "address",
          "name": "reciver",
          "type": "address"
        }
      ],
      "name": "getChannelSendersByReciver",
      "outputs": [
        {
          "internalType": "address[]",
          "name": "",
          "type": "address[]"
        }
      ],
      "stateMutability": "view",
      "type": "function"
    },
    {
      "inputs": [
        {
          "internalType": "bytes32",
          "name": "_messageHash",
          "type": "bytes32"
        }
      ],
      "name": "getEthSignedMessageHash",
      "outputs": [
        {
          "internalType": "bytes32",
          "name": "",
          "type": "bytes32"
        }
      ],
      "stateMutability": "pure",
      "type": "function"
    },
    {
      "inputs": [
        {
          "internalType": "address",
          "name": "from",
          "type": "address"
        },
        {
          "internalType": "address",
          "name": "to",
          "type": "address"
        },
        {
          "internalType": "address",
          "name": "networkProvider",
          "type": "address"
        },
        {
          "internalType": "uint256",
          "name": "amount",
          "type": "uint256"
        },
        {
          "internalType": "uint256",
          "name": "round",
          "type": "uint256"
        },
        {
          "internalType": "uint256",
          "name": "marginal",
          "type": "uint256"
        },
        {
          "internalType": "string",
          "name": "cid",
          "type": "string"
        }
      ],
      "name": "getMessageHash",
      "outputs": [
        {
          "internalType": "bytes32",
          "name": "",
          "type": "bytes32"
        }
      ],
      "stateMutability": "pure",
      "type": "function"
    },
    {
      "inputs": [
        {
          "internalType": "address",
          "name": "to",
          "type": "address"
        },
        {
          "internalType": "uint256",
          "name": "value",
          "type": "uint256"
        }
      ],
      "name": "open",
      "outputs": [],
      "stateMutability": "nonpayable",
      "type": "function"
    },
    {
      "inputs": [
        {
          "internalType": "address",
          "name": "from",
          "type": "address"
        },
        {
          "internalType": "address",
          "name": "to",
          "type": "address"
        },
        {
          "internalType": "uint256",
          "name": "amount",
          "type": "uint256"
        },
        {
          "internalType": "uint256",
          "name": "round",
          "type": "uint256"
        },
        {
          "internalType": "uint256",
          "name": "marginal",
          "type": "uint256"
        },
        {
          "internalType": "string",
          "name": "cid",
          "type": "string"
        },
        {
          "internalType": "bytes",
          "name": "senderSig",
          "type": "bytes"
        }
      ],
      "name": "reciverCollectPayment",
      "outputs": [],
      "stateMutability": "nonpayable",
      "type": "function"
    },
    {
      "inputs": [
        {
          "internalType": "bytes32",
          "name": "_ethSignedMessageHash",
          "type": "bytes32"
        },
        {
          "internalType": "bytes",
          "name": "_signature",
          "type": "bytes"
        }
      ],
      "name": "recoverSigner",
      "outputs": [
        {
          "internalType": "address",
          "name": "",
          "type": "address"
        }
      ],
      "stateMutability": "pure",
      "type": "function"
    },
    {
      "inputs": [
        {
          "internalType": "address",
          "name": "to",
          "type": "address"
        },
        {
          "internalType": "uint256",
          "name": "amount",
          "type": "uint256"
        }
      ],
      "name": "senderFundChannel",
      "outputs": [],
      "stateMutability": "nonpayable",
      "type": "function"
    },
    {
      "inputs": [
        {
          "internalType": "address",
          "name": "to",
          "type": "address"
        }
      ],
      "name": "senderLock",
      "outputs": [],
      "stateMutability": "nonpayable",
      "type": "function"
    },
    {
      "inputs": [
        {
          "internalType": "address",
          "name": "to",
          "type": "address"
        }
      ],
      "name": "senderUnlock",
      "outputs": [],
      "stateMutability": "nonpayable",
      "type": "function"
    },
    {
      "inputs": [
        {
          "internalType": "address",
          "name": "to",
          "type": "address"
        }
      ],
      "name": "senderWithdrawal",
      "outputs": [],
      "stateMutability": "nonpayable",
      "type": "function"
    },
    {
      "inputs": [
        {
          "internalType": "bytes",
          "name": "sig",
          "type": "bytes"
        }
      ],
      "name": "splitSignature",
      "outputs": [
        {
          "internalType": "bytes32",
          "name": "r",
          "type": "bytes32"
        },
        {
          "internalType": "bytes32",
          "name": "s",
          "type": "bytes32"
        },
        {
          "internalType": "uint8",
          "name": "v",
          "type": "uint8"
        }
      ],
      "stateMutability": "pure",
      "type": "function"
    },
    {
      "inputs": [],
      "name": "token",
      "outputs": [
        {
          "internalType": "contract IERC20",
          "name": "",
          "type": "address"
        }
      ],
      "stateMutability": "view",
      "type": "function"
    },
    {
      "inputs": [
        {
          "internalType": "address",
          "name": "to",
          "type": "address"
        },
        {
          "internalType": "uint256",
          "name": "amount",
          "type": "uint256"
        }
      ],
      "name": "transfer",
      "outputs": [
        {
          "internalType": "bool",
          "name": "",
          "type": "bool"
        }
      ],
      "stateMutability": "nonpayable",
      "type": "function"
    },
    {
      "inputs": [
        {
          "internalType": "uint256",
          "name": "amount",
          "type": "uint256"
        }
      ],
      "name": "withdrawal",
      "outputs": [
        {
          "internalType": "bool",
          "name": "",
          "type": "bool"
        }
      ],
      "stateMutability": "nonpayable",
      "type": "function"
    }
  ],
  "bytecode": "0x6080604052620151806003556004805460ff191660121790553480156200002557600080fd5b5060405162001bb138038062001bb18339810160408190526200004891620000b3565b614e20811080156200005957508015155b6200006357600080fd5b600180546001600160a01b0319166001600160a01b039485161790559116600090815260026020526040902055620000f4565b80516001600160a01b0381168114620000ae57600080fd5b919050565b600080600060608486031215620000c957600080fd5b620000d48462000096565b9250620000e46020850162000096565b9150604084015190509250925092565b611aad80620001046000396000f3fe608060405234801561001057600080fd5b506004361061016c5760003560e01c8063835fc6ca116100cd578063b54f333611610081578063c6fd6e1f11610066578063c6fd6e1f1461034f578063fa54080114610362578063fc0c546a146103c357600080fd5b8063b54f333614610329578063b6b55f251461033c57600080fd5b806397dc4a13116100b257806397dc4a13146102d2578063a7bb5803146102e5578063a9059cbb1461031657600080fd5b8063835fc6ca1461028457806397aba7f9146102a757600080fd5b806361f37b051161012457806370a082311161010957806370a082311461021a57806372f2a570146102515780637f968ac71461026457600080fd5b806361f37b05146101f457806367d0e5051461020757600080fd5b806317df34f11161015557806317df34f114610199578063313ce567146101c25780634cc3bf6f146101e157600080fd5b80630a0e5c9d146101715780631360569d14610186575b600080fd5b61018461017f3660046115d7565b6103d6565b005b610184610194366004611601565b610665565b6101ac6101a7366004611601565b610773565b6040516101b99190611623565b60405180910390f35b6004546101cf9060ff1681565b60405160ff90911681526020016101b9565b6101846101ef366004611601565b6107e9565b610184610202366004611713565b610961565b6101ac610215366004611601565b610cd4565b610243610228366004611601565b6001600160a01b031660009081526020819052604090205490565b6040519081526020016101b9565b61024361025f3660046117b5565b610d48565b610277610272366004611832565b610d8a565b6040516101b9919061187b565b6102976102923660046118c9565b610e1f565b60405190151581526020016101b9565b6102ba6102b53660046118e2565b610f3b565b6040516001600160a01b0390911681526020016101b9565b6102436102e03660046118c9565b610fba565b6102f86102f3366004611929565b610ff6565b60408051938452602084019290925260ff16908201526060016101b9565b6102976103243660046115d7565b61106a565b6101846103373660046115d7565b6111ed565b61029761034a3660046118c9565b611396565b61018461035d366004611601565b6114ba565b6102436103703660046118c9565b6040517f19457468657265756d205369676e6564204d6573736167653a0a3332000000006020820152603c8101829052600090605c01604051602081830303815290604052805190602001209050919050565b6001546102ba906001600160a01b031681565b336000818152602081905260409020548083111561044f5760405162461bcd60e51b815260206004820152602b60248201527f796f7520646f206e6f742068617665207468652062616c616e636520746f206660448201526a1d5b990818da185b9b995b60aa1b60648201526084015b60405180910390fd5b60006001600160a01b0380841660009081526005602090815260408083209389168352929052206001015460ff16600281111561048e5761048e611865565b146105015760405162461bcd60e51b815260206004820152603660248201527f6368616e6e656c20616c7265616479206f70656e6564207573652073656e646560448201527f7246756e644368616e6e656c282920696e7374656164000000000000000000006064820152608401610446565b61050b838261197c565b6001600160a01b038381166000818152602081815260408083209590955584518082018652828152855160808101875289815260018184018181528289018490526060830186905295855260058452878520968c1685529590925294909120815181559151828401805492949192909160ff199091169083600281111561059457610594611865565b02179055506040828101515160028301556060909201516003909101556001600160a01b03848116600081815260066020908152848220805460018082018355918452828420018054958c167fffffffffffffffffffffffff0000000000000000000000000000000000000000968716811790915580845260078352868420805492830181558452928290200180549094168317909355925187815290917f2d48ac6acd9c250f93c75e6a8dd61f6f1c062b7f83c1f604cf41a3352df683fc91015b60405180910390a35050505050565b338160016001600160a01b0380841660009081526005602090815260408083209386168352929052206001015460ff1660028111156106a6576106a6611865565b146106f35760405162461bcd60e51b815260206004820152601360248201527f4368616e6e656c206973206e6f74206f70656e000000000000000000000000006044820152606401610446565b3360008181526005602090815260408083206001600160a01b0388168085529083529281902060018101805460ff1916600217905567ffffffffffffffff42166003909101819055815181815291519094927fec36c0364d931187a76cf66d7eee08fad0ec2e8b7458a8d8b26b36769d4d13f3928290030190a350505050565b6001600160a01b0381166000908152600760209081526040918290208054835181840281018401909452808452606093928301828280156107dd57602002820191906000526020600020905b81546001600160a01b031681526001909101906020018083116107bf575b50505050509050919050565b3360008181526005602090815260408083206001600160a01b0386168452909152902060010154829060029060ff168181111561082857610828611865565b146108755760405162461bcd60e51b815260206004820152601560248201527f4368616e6e656c206973206e6f74206c6f636b656400000000000000000000006044820152606401610446565b3360009081526005602090815260408083206001600160a01b0387168452909152902060039081015490546108aa908261198f565b42106108b557600080fd5b3360008181526005602090815260408083206001600160a01b0389168452825280832080549084905593835290829052812080548392906108f790849061198f565b90915550503360008181526005602090815260408083206001600160a01b038a16808552908352928190206001908101805460ff19169091179055518481529192917f3bb082152a6aeca4accd7a549583361cf3387c060a33681f9bc6f22fa6333f8c9101610656565b33600081815260026020526040812054908190036109e75760405162461bcd60e51b815260206004820152602c60248201527f6f6e6c79206e6574776f726b50726f7669646572732063616e2063616c6c207460448201527f6869732066756e6374696f6e00000000000000000000000000000000000000006064820152608401610446565b6001600160a01b038981166000908152600560209081526040808320938c16835292905220600201548614610a5e5760405162461bcd60e51b815260206004820152600f60248201527f696e636f727265637420726f756e6400000000000000000000000000000000006044820152606401610446565b6001600160a01b03808a166000908152600560209081526040808320938c1683529290522054871115610af95760405162461bcd60e51b815260206004820152602560248201527f6e6f7420656e6f7567682066756e647320746f206d616b65207468697320706160448201527f796d656e740000000000000000000000000000000000000000000000000000006064820152608401610446565b6000610b0a8a8a858b8b8b8b610d48565b90506000610b65826040517f19457468657265756d205369676e6564204d6573736167653a0a3332000000006020820152603c8101829052600090605c01604051602081830303815290604052805190602001209050919050565b90508a6001600160a01b0316610b7b8287610f3b565b6001600160a01b031614610b8e57600080fd5b6001600160a01b03808c166000908152600560209081526040808320938e16835292905290812080548b9290610bc590849061197c565b90915550506001600160a01b038b81166000908152600560209081526040808320938e16835292905220600201805460010190556000620f4240610c098b866119a2565b610c1391906119b9565b905080600080876001600160a01b03166001600160a01b031681526020019081526020016000206000828254610c49919061198f565b90915550610c599050818b61197c565b6001600160a01b038c1660009081526020819052604081208054909190610c8190849061198f565b90915550506040518a815233906001600160a01b038e16907f3bb082152a6aeca4accd7a549583361cf3387c060a33681f9bc6f22fa6333f8c9060200160405180910390a3505050505050505050505050565b6001600160a01b0381166000908152600660209081526040918290208054835181840281018401909452808452606093928301828280156107dd576020028201919060005260206000209081546001600160a01b031681526001909101906020018083116107bf5750505050509050919050565b600087878787878787604051602001610d6797969594939291906119db565b604051602081830303815290604052805190602001209050979650505050505050565b610d9261157e565b6001600160a01b038084166000908152600560209081526040808320938616835292815290829020825160808101909352805483526001810154909183019060ff166002811115610de557610de5611865565b6002811115610df657610df6611865565b815260408051602081810183526002850154825283015260039092015491015290505b92915050565b3360008181526020819052604081205490919080841115610e3f57600080fd5b6001600160a01b0382811660008181526020819052604090819020878503905560015490517fa9059cbb0000000000000000000000000000000000000000000000000000000081526004810192909252602482018790529091169063a9059cbb906044016020604051808303816000875af1158015610ec2573d6000803e3d6000fd5b505050506040513d601f19601f82011682018060405250810190610ee69190611a55565b50604080516001600160a01b0384168152600060208201529081018590527fddf252ad1be2c89b69c2b068fc378daa952ba7f163c4a11628f55a4df523b3ef9060600160405180910390a15060019392505050565b600080600080610f4a85610ff6565b6040805160008152602081018083528b905260ff8316918101919091526060810184905260808101839052929550909350915060019060a0016020604051602081039080840390855afa158015610fa5573d6000803e3d6000fd5b5050604051601f190151979650505050505050565b33600090815260208190526040812080548391908390610fdb90849061198f565b90915550503360009081526020819052604090205492915050565b6000806000835160411461104c5760405162461bcd60e51b815260206004820152601860248201527f696e76616c6964207369676e6174757265206c656e67746800000000000000006044820152606401610446565b50505060208101516040820151606090920151909260009190911a90565b6000336001600160a01b0384166110e95760405162461bcd60e51b815260206004820152602360248201527f45524332303a207472616e7366657220746f20746865207a65726f206164647260448201527f65737300000000000000000000000000000000000000000000000000000000006064820152608401610446565b6001600160a01b038116600090815260208190526040902054838110156111785760405162461bcd60e51b815260206004820152602660248201527f45524332303a207472616e7366657220616d6f756e742065786365656473206260448201527f616c616e636500000000000000000000000000000000000000000000000000006064820152608401610446565b6001600160a01b0382811660008181526020818152604080832089870390559389168083529184902080548901905583519283528201529081018590527fddf252ad1be2c89b69c2b068fc378daa952ba7f163c4a11628f55a4df523b3ef9060600160405180910390a1506001949350505050565b338260016001600160a01b0380841660009081526005602090815260408083209386168352929052206001015460ff16600281111561122e5761122e611865565b1461127b5760405162461bcd60e51b815260206004820152601360248201527f4368616e6e656c206973206e6f74206f70656e000000000000000000000000006044820152606401610446565b33600081815260208190526040902054808511156112ef5760405162461bcd60e51b815260206004820152602b60248201527f796f7520646f206e6f742068617665207468652062616c616e636520746f206660448201526a1d5b990818da185b9b995b60aa1b6064820152608401610446565b6112f9858261197c565b6001600160a01b038084166000908152602081815260408083209490945560058152838220928a16825291909152908120805487929061133a90849061198f565b92505081905550856001600160a01b0316826001600160a01b03167f2d48ac6acd9c250f93c75e6a8dd61f6f1c062b7f83c1f604cf41a3352df683fc8760405161138691815260200190565b60405180910390a3505050505050565b6001546040517f23b872dd00000000000000000000000000000000000000000000000000000000815233600482018190523060248301526044820184905260009290916001600160a01b03909116906323b872dd906064016020604051808303816000875af115801561140d573d6000803e3d6000fd5b505050506040513d601f19601f820116820180604052508101906114319190611a55565b61143a57600080fd5b6001600160a01b0381166000908152602081905260408120805485929061146290849061198f565b909155505060408051600081526001600160a01b03831660208201529081018490527fddf252ad1be2c89b69c2b068fc378daa952ba7f163c4a11628f55a4df523b3ef9060600160405180910390a150600192915050565b3360008181526005602090815260408083206001600160a01b0386168452909152902060010154829060029060ff16818111156114f9576114f9611865565b146115465760405162461bcd60e51b815260206004820152601560248201527f4368616e6e656c206973206e6f74206c6f636b656400000000000000000000006044820152606401610446565b50503360009081526005602090815260408083206001600160a01b03949094168352929052206001908101805460ff19169091179055565b60408051608081019091526000808252602082019081526020016115ae6040518060200160405280600081525090565b8152602001600081525090565b80356001600160a01b03811681146115d257600080fd5b919050565b600080604083850312156115ea57600080fd5b6115f3836115bb565b946020939093013593505050565b60006020828403121561161357600080fd5b61161c826115bb565b9392505050565b6020808252825182820181905260009190848201906040850190845b818110156116645783516001600160a01b03168352928401929184019160010161163f565b50909695505050505050565b634e487b7160e01b600052604160045260246000fd5b600082601f83011261169757600080fd5b813567ffffffffffffffff808211156116b2576116b2611670565b604051601f8301601f19908116603f011681019082821181831017156116da576116da611670565b816040528381528660208588010111156116f357600080fd5b836020870160208301376000602085830101528094505050505092915050565b600080600080600080600060e0888a03121561172e57600080fd5b611737886115bb565b9650611745602089016115bb565b955060408801359450606088013593506080880135925060a088013567ffffffffffffffff8082111561177757600080fd5b6117838b838c01611686565b935060c08a013591508082111561179957600080fd5b506117a68a828b01611686565b91505092959891949750929550565b600080600080600080600060e0888a0312156117d057600080fd5b6117d9886115bb565b96506117e7602089016115bb565b95506117f5604089016115bb565b9450606088013593506080880135925060a0880135915060c088013567ffffffffffffffff81111561182657600080fd5b6117a68a828b01611686565b6000806040838503121561184557600080fd5b61184e836115bb565b915061185c602084016115bb565b90509250929050565b634e487b7160e01b600052602160045260246000fd5b8151815260208201516080820190600381106118a757634e487b7160e01b600052602160045260246000fd5b8060208401525060408301515160408301526060830151606083015292915050565b6000602082840312156118db57600080fd5b5035919050565b600080604083850312156118f557600080fd5b82359150602083013567ffffffffffffffff81111561191357600080fd5b61191f85828601611686565b9150509250929050565b60006020828403121561193b57600080fd5b813567ffffffffffffffff81111561195257600080fd5b61195e84828501611686565b949350505050565b634e487b7160e01b600052601160045260246000fd5b81810381811115610e1957610e19611966565b80820180821115610e1957610e19611966565b8082028115828204841417610e1957610e19611966565b6000826119d657634e487b7160e01b600052601260045260246000fd5b500490565b60006bffffffffffffffffffffffff19808a60601b168352808960601b166014840152808860601b1660288401525085603c83015284605c83015283607c830152825160005b81811015611a3e576020818601810151609c868401015201611a21565b5060009201609c0191825250979650505050505050565b600060208284031215611a6757600080fd5b8151801515811461161c57600080fdfea2646970667358221220d6241165a8a5bfa8ad203c32b116c95e3e1ed805d0fd1b23f840263a11a59c2964736f6c63430008110033",
  "linkReferences": {},
  "deployedLinkReferences": {}
}